:020000040800F2
:1000000000000120D94500082B35000833350008D1
:100010003B350008433500084B3500080000000060
:100020000000000000000000000000005335000840
:100030005F350008000000006B35000877350008C8
:100040002946000829460008853500082946000889
:1000500029460008294600082946000829460008C4
:100060002946000829460008294600089935000855
:1000700029460008294600082946000829460008A4
:100080002946000829460008294600082946000894
:1000900000000000294600082946000829460008FB
:1000A0002946000829460008294600082946000874
:1000B0002946000829460008294600082946000864
:1000C0002946000829460008294600082946000854
:1000D000AD350008294600082946000829460008D1
:1000E0002946000829460008C135000829460008AD
:1000F0002946000800000000000000002946000812
:100100002946000829460008D53500082946000878
:100110002946000829460008294600082946000803
:1001200029460008294600082946000829460008F3
:080130002946000829460008D9
:1001400010B5054C237833B9044B13B10448AFF311
:1001500000800123237010BD200400200000000057
:100160004C6C020808B5034B1BB103490348AFF3BD
:10017000008008BD00000000240400204C6C020830
:1001800001F0FF01102A2BDB10F0070F08D010F848
:10019000013B013A8B422DD010F0070F42B3F6D14C
:1001A000F0B441EA012141EA014122F007047FF065
:1001B00000070023F0E80256083C85EA010586EABC
:1001C000010685FA47F5A3FA87F586FA47F6A5FAF8
:1001D00087F68EB9EED1F0BC01F0FF0102F0070204
:1001E00032B110F8013B013A83EA010313B1F8D1AF
:1001F0000020704701387047002D06BF3546033890
:10020000073815F0010F07D1013015F4807F02BFC8
:10021000013015F4C03F0130F0BC0138704700BF19
:10022000034613F8012B002AFBD1181A0138704736
:1002300081F0004102E000BF83F0004330B54FEA97
:1002400041044FEA430594EA050F08BF90EA020F04
:100250001FBF54EA000C55EA020C7FEA645C7FEA97
:10026000655C00F0E2804FEA5454D4EB5555B8BFBA
:100270006D420CDD2C4480EA020281EA030382EA2B
:10028000000083EA010180EA020281EA0303362DBD
:1002900088BF30BD11F0004F4FEA01314FF4801C90
:1002A0004CEA113102D0404261EB410113F0004FA2
:1002B0004FEA03334CEA133302D0524263EB430359
:1002C00094EA050F00F0A780A4F10104D5F1200EF7
:1002D0000DDB02FA0EFC22FA05F2801841F1000152
:1002E00003FA0EF2801843FA05F359410EE0A5F126
:1002F00020050EF1200E012A03FA0EFC28BF4CF057
:10030000020C43FA05F3C01851EBE37101F000450C
:1003100007D54FF0000EDCF1000C7EEB00006EEB19
:100320000101B1F5801F1BD3B1F5001F0CD34908A3
:100330005FEA30004FEA3C0C04F101044FEA4452FA
:1003400012F5800F80F09A80BCF1004F08BF5FEA81
:10035000500C50F1000041EB045141EA050130BD61
:100360005FEA4C0C404141EB0101013C28BFB1F573
:10037000801FE9D291F0000F04BF01460020B1FABE
:1003800081F308BF2033A3F10B03B3F120020CDA91
:100390000C3208DD02F1140CC2F10C0201FA0CF06F
:1003A00021FA02F10CE002F11402D8BFC2F1200CD4
:1003B00001FA02F120FA0CFCDCBF41EA0C0190408A
:1003C000E41AA2BF01EB0451294330BD6FEA0404D3
:1003D0001F3C1CDA0C340EDC04F11404C4F12002BE
:1003E00020FA04F001FA02F340EA030021FA04F3D0
:1003F00045EA030130BDC4F10C04C4F1200220FA27
:1004000002F001FA04F340EA0300294630BD21FA64
:1004100004F0294630BD94F0000F83F4801306BF2A
:1004200081F480110134013D4EE77FEA645C18BF1E
:100430007FEA655C29D094EA050F08BF90EA020FB5
:1004400005D054EA000C04BF1946104630BD91EAAD
:10045000030F1EBF0021002030BD5FEA545C05D1B0
:100460004000494128BF41F0004130BD14F58004EF
:100470003CBF01F5801130BD01F0004545F0FE4163
:1004800041F470014FF0000030BD7FEA645C1ABF98
:10049000194610467FEA655C1CBF0B46024650EACF
:1004A000013406BF52EA033591EA030F41F40021FB
:1004B00030BD00BF90F0000F04BF0021704730B581
:1004C0004FF4806404F132044FF000054FF0000156
:1004D00050E700BF90F0000F04BF0021704730B517
:1004E0004FF4806404F1320410F0004548BF4042EC
:1004F0004FF000013EE700BF42004FEAE2014FEA41
:1005000031014FEA02701FBF12F07F4393F07F4F1B
:1005100081F06051704732F07F4208BF704793F01E
:100520007F4F04BF41F40021704730B54FF4607431
:1005300001F0004521F000411CE700BF50EA010234
:1005400008BF704730B54FF000050AE050EA0102DD
:1005500008BF704730B511F0004502D5404261EB4D
:1005600041014FF4806404F132045FEA915C3FF48E
:10057000D8AE4FF003025FEADC0C18BF03325FEA2B
:10058000DC0C18BF033202EBDC02C2F1200300FADC
:1005900003FC20FA02F001FA03FE40EA0E0021FA01
:1005A00002F11444BDE600BF70B54FF0FF0C4CF4EF
:1005B000E06C1CEA11541DBF1CEA135594EA0C0FA1
:1005C00095EA0C0F00F0DEF82C4481EA030621EADC
:1005D0004C5123EA4C5350EA013518BF52EA033517
:1005E00041F4801143F4801338D0A0FB02CE4FF0C9
:1005F0000005E1FB02E506F00042E0FB03E54FF0F9
:100600000006E1FB03569CF0000F18BF4EF0010EF0
:10061000A4F1FF04B6F5007F64F5407404D25FEAEC
:100620004E0E6D4146EB060642EAC62141EA55519F
:100630004FEAC52040EA5E504FEACE2EB4F1FD0CE1
:1006400088BFBCF5E06F1ED8BEF1004F08BF5FEA5F
:10065000500E50F1000041EB045170BD06F0004611
:1006600046EA010140EA020081EA0301B4EB5C04BE
:10067000C2BFD4EB0C0541EA045170BD41F48011B6
:100680004FF0000E013C00F3AB8014F1360FDEBFDB
:10069000002001F0004170BDC4F10004203C35DAB7
:1006A0000C341BDC04F11404C4F1200500FA05F33A
:1006B00020FA04F001FA05F240EA020001F00042DB
:1006C00021F0004110EBD37021FA04F642EB060151
:1006D0005EEA430E08BF20EAD37070BDC4F10C047B
:1006E000C4F1200500FA04F320FA05F001FA04F23F
:1006F00040EA020001F0004110EBD37041F100012B
:100700005EEA430E08BF20EAD37070BDC4F1200535
:1007100000FA05F24EEA020E20FA04F301FA05F29D
:1007200043EA020321FA04F001F0004121FA04F245
:1007300020EA020000EBD3705EEA430E08BF20EA15
:10074000D37070BD94F0000F0FD101F0004640004F
:1007500041EB010111F4801F08BF013CF7D041EAD1
:10076000060195F0000F18BF704703F000465200D5
:1007700043EB030313F4801F08BF013DF7D043EAA6
:100780000603704794EA0C0F0CEA135518BF95EA5C
:100790000C0F0CD050EA410618BF52EA4306D1D1E3
:1007A00081EA030101F000414FF0000070BD50EA02
:1007B000410606BF1046194652EA430619D094EA8C
:1007C0000C0F02D150EA013613D195EA0C0F05D176
:1007D00052EA03361CBF104619460AD181EA0301CA
:1007E00001F0004141F0FE4141F470014FF0000082
:1007F00070BD41F0FE4141F4780170BD70B54FF01D
:10080000FF0C4CF4E06C1CEA11541DBF1CEA13559C
:1008100094EA0C0F95EA0C0F00F0A7F8A4EB05047E
:1008200081EA030E52EA03354FEA013100F0888075
:100830004FEA03334FF0805545EA131343EA12633E
:100840004FEA022245EA111545EA10654FEA0026F3
:100850000EF000419D4208BF964244F1FD0404F5AC
:10086000407402D25B084FEA3202B61A65EB030508
:100870005B084FEA32024FF480104FF4002CB6EBC5
:10088000020E75EB030E22BFB61A754640EA0C0045
:100890005B084FEA3202B6EB020E75EB030E22BF85
:1008A000B61A754640EA5C005B084FEA3202B6EBC6
:1008B000020E75EB030E22BFB61A754640EA9C0085
:1008C0005B084FEA3202B6EB020E75EB030E22BF55
:1008D000B61A754640EADC0055EA060E18D04FEA13
:1008E000051545EA16754FEA06164FEAC30343EAB3
:1008F00052734FEAC2025FEA1C1CC0D111F4801F80
:100900000BD141EA00014FF000004FF0004CB6E778
:1009100011F4801F04BF01430020B4F1FD0C88BF17
:10092000BCF5E06F3FF6AFAEB5EB030C04BFB6EB22
:10093000020C5FEA500C50F1000041EB045170BD15
:100940000EF0004E4EEA113114EB5C04C2BFD4EB42
:100950000C0541EA045170BD41F480114FF0000EC6
:10096000013C90E645EA060E8DE60CEA135594EA42
:100970000C0F08BF95EA0C0F3FF43BAF94EA0C0F45
:100980000AD150EA01347FF434AF95EA0C0F7FF4BA
:1009900025AF104619462CE795EA0C0F06D152EA0E
:1009A00003353FF4FDAE1046194622E750EA4106F2
:1009B00018BF52EA43067FF4C5AE50EA41047FF403
:1009C0000DAF52EA43057FF4EBAE12E74FF0FF3C68
:1009D00006E000BF4FF0010C02E000BF4FF0010C39
:1009E0004DF804CD4FEA410C7FEA6C5C4FEA430CB2
:1009F00018BF7FEA6C5C1BD001B050EA410C0CBF01
:100A000052EA430C91EA030F02BF90EA020F002062
:100A1000704710F1000F91EA030F58BF994208BFC9
:100A200090422CBFD8176FEAE37040F00100704786
:100A30004FEA410C7FEA6C5C02D150EA013C07D1DD
:100A40004FEA430C7FEA6C5CD6D152EA033CD3D028
:100A50005DF8040B704700BF8446104662468C4622
:100A60001946634600E000BF01B5FFF7B7FF002855
:100A700048BF10F1000F01BD4DF808EDFFF7F4FF7E
:100A80000CBF012000205DF808FB00BF4DF808ED09
:100A9000FFF7EAFF34BF012000205DF808FB00BF2C
:100AA0004DF808EDFFF7E0FF94BF012000205DF84E
:100AB00008FB00BF4DF808EDFFF7CEFF94BF012003
:100AC00000205DF808FB00BF4DF808EDFFF7C4FFFC
:100AD00034BF012000205DF808FB00BF4FEA410C45
:100AE0007FEA6C5C02D150EA013C0AD14FEA430C28
:100AF0007FEA6C5C02D152EA033C02D14FF0000065
:100B000070474FF0010070474FEA410212F50012A2
:100B100015D211D56FF47873B3EB625212D94FEA44
:100B2000C12343F0004343EA505311F0004F23FA2E
:100B300002F018BF404270474FF00000704750EA83
:100B4000013005D111F0004008BF6FF00040704740
:100B50004FF00000704700BF4FEA4102B2F1E0439E
:100B600024BFB3F5001CDCF1FE5C0DD901F0004C94
:100B70004FEAC0024CEA5070B2F1004F40EB8300E4
:100B800008BF20F00100704711F0804F21D113F110
:100B90003872BCBF01F00040704741F480114FEA49
:100BA0005252C2F11802C2F1200C10FA0CF320FAD2
:100BB00002F018BF40F001004FEAC1234FEAD323EF
:100BC00003FA0CFC40EA0C0023FA02F34FEA430359
:100BD000CCE77FEA625307D150EA01331EBF4FF0E2
:100BE000FE4040F44000704701F0004040F0FE40FD
:100BF00040F40000704700BF80F0004002E000BFFA
:100C000081F0004142001FBF5FEA410392EA030FF7
:100C10007FEA226C7FEA236C6AD04FEA1262D2EB41
:100C20001363C1BFD218414048404140B8BF5B4246
:100C3000192B88BF704710F0004F40F4000020F0DF
:100C40007F4018BF404211F0004F41F4000121F0F5
:100C50007F4118BF494292EA030F3FD0A2F101023F
:100C600041FA03FC10EB0C00C3F1200301FA03F17D
:100C700000F0004302D5494260EB4000B0F5000FA0
:100C800013D3B0F1807F06D340084FEA310102F15F
:100C90000102FE2A51D2B1F1004F40EBC25008BF11
:100CA00020F0010040EA03007047490040EB0000DB
:100CB000013A28BFB0F5000FEDD2B0FA80FCACF1DC
:100CC000080CB2EB0C0200FA0CF0AABF00EBC25009
:100CD00052421843BCBFD0401843704792F0000FF7
:100CE00081F4000106BF80F400000132013BB5E74A
:100CF0004FEA41037FEA226C18BF7FEA236C21D0C0
:100D000092EA030F04D092F0000F08BF0846704724
:100D100090EA010F1CBF0020704712F07F4F04D1F2
:100D2000400028BF40F00040704712F100723CBF05
:100D300000F50000704700F0004343F0FE4040F42F
:100D4000000070477FEA226216BF08467FEA2363ED
:100D50000146420206BF5FEA412390EA010F40F4D8
:100D6000800070474FF0000304E000BF10F0004324
:100D700048BF40425FEA000C08BF704743F096430B
:100D800001464FF000001CE050EA010208BF704726
:100D90004FF000030AE000BF50EA010208BF7047AD
:100DA00011F0004302D5404261EB41015FEA010CC2
:100DB00002BF84460146002043F0B64308BFA3F1BA
:100DC0008053A3F50003BCFA8CF2083AA3EBC2539C
:100DD00010DB01FA02FC634400FA02FCC2F12002BB
:100DE000BCF1004F20FA02F243EB020008BF20F0F2
:100DF0000100704702F1200201FA02FCC2F1200258
:100E000050EA4C0021FA02F243EB020008BF20EA4C
:100E1000DC7070474FF0FF0C1CEAD0521EBF1CEA7A
:100E2000D15392EA0C0F93EA0C0F6FD01A4480EA68
:100E3000010C400218BF5FEA41211ED04FF0006351
:100E400043EA501043EA5111A0FB01310CF000407D
:100E5000B1F5000F3EBF490041EAD3715B0040EAA3
:100E6000010062F17F02FD2A1DD8B3F1004F40EB73
:100E7000C25008BF20F00100704790F0000F0CF046
:100E8000004C08BF49024CEA502040EA51207F3A0A
:100E9000C2BFD2F1FF0340EAC250704740F40000E5
:100EA0004FF00003013A5DDC12F1190FDCBF00F0D6
:100EB00000407047C2F10002410021FA02F1C2F184
:100EC000200200FA02FC5FEA310040F1000053EA20
:100ED0004C0308BF20EADC70704792F0000F00F06E
:100EE000004C02BF400010F4000F013AF9D040EA74
:100EF0000C0093F0000F01F0004C02BF490011F408
:100F0000000F013BF9D041EA0C018FE70CEAD15305
:100F100092EA0C0F18BF93EA0C0F0AD030F0004C85
:100F200018BF31F0004CD8D180EA010000F0004039
:100F3000704790F0000F17BF90F0004F084691F0F7
:100F4000000F91F0004F14D092EA0C0F01D1420231
:100F50000FD193EA0C0F03D14B0218BF084608D1FA
:100F600080EA010000F0004040F0FE4040F4000044
:100F7000704740F0FE4040F4400070474FF0FF0CD7
:100F80001CEAD0521EBF1CEAD15392EA0C0F93EA1E
:100F90000C0F69D0A2EB030280EA010C49024FEA70
:100FA000402037D04FF0805343EA111143EA101329
:100FB0000CF000408B4238BF5B0042F17D024FF4E1
:100FC000000C8B4224BF5B1A40EA0C00B3EB510FBC
:100FD00024BFA3EB510340EA5C00B3EB910F24BFA5
:100FE000A3EB910340EA9C00B3EBD10F24BFA3EB2A
:100FF000D10340EADC001B0118BF5FEA1C1CE0D1F2
:10100000FD2A3FF650AF8B4240EBC25008BF20F0A4
:10101000010070470CF0004C4CEA50207F32C2BFF8
:10102000D2F1FF0340EAC250704740F400004FF095
:101030000003013A37E792F0000F00F0004C02BFC6
:10104000400010F4000F013AF9D040EA0C0093F090
:10105000000F01F0004C02BF490011F4000F013BEA
:10106000F9D041EA0C0195E70CEAD15392EA0C0F52
:1010700008D142027FF47DAF93EA0C0F7FF470AF8A
:10108000084676E793EA0C0F04D14B023FF44CAFCD
:1010900008466EE730F0004C18BF31F0004CCAD162
:1010A00030F000427FF45CAF31F000437FF43CAF9E
:1010B0005FE700BF4FF0FF3C06E000BF4FF0010CC0
:1010C00002E000BF4FF0010C4DF804CD4FEA4002A2
:1010D0004FEA41037FEA226C18BF7FEA236C11D0EC
:1010E00001B052EA530C18BF90EA010F58BFB2EB9F
:1010F000030088BFC81738BF6FEAE17018BF40F01F
:10110000010070477FEA226C02D15FEA402C05D1D2
:101110007FEA236CE4D15FEA412CE1D05DF8040B57
:10112000704700BF844608466146FFE70FB5FFF7EA
:10113000C9FF002848BF10F1000F0FBD4DF808EDA2
:10114000FFF7F4FF0CBF012000205DF808FB00BF93
:101150004DF808EDFFF7EAFF34BF012000205DF8ED
:1011600008FB00BF4DF808EDFFF7E0FF94BF01203A
:1011700000205DF808FB00BF4DF808EDFFF7D2FF37
:1011800094BF012000205DF808FB00BF4DF808ED7A
:10119000FFF7C8FF34BF012000205DF808FB00BF47
:1011A0004FEA40024FEA41037FEA226C02D15FEA34
:1011B000402C08D17FEA236C02D15FEA412C02D196
:1011C0004FF0000070474FF0010070474FEA4002B7
:1011D000B2F1FE4F0FD34FF09E03B3EB12620DD965
:1011E0004FEA002343F0004310F0004F23FA02F0CF
:1011F00018BF404270474FF00000704712F1610F76
:1012000001D1420205D110F0004008BF6FF000404C
:1012100070474FF00000704753B94AB9002908BF22
:1012200000281CBF4FF0FF314FF0FF3000F088B9AD
:10123000ADF1080C6DE904CE00F006F8DDF804E02D
:10124000DDE9022304B070472DE9F047089D8E4682
:1012500004468846002B4AD18A42174662D9B2FA20
:1012600082F64EB1C6F1200301FA06F820FA03F324
:10127000B74043EA0808B4404FEA174E1FFA87FC0C
:10128000B8FBFEF1230C0EFB118843EA084301FB77
:101290000CF29A4209D9FB1801F1FF3080F0EA8084
:1012A0009A4240F2E78002393B449A1AA3B2B2FB59
:1012B000FEF00EFB102243EA024300FB0CFC9C45AF
:1012C00009D9FB1800F1FF3280F0D6809C4540F22E
:1012D000D3803B44023840EA0140A3EB0C030021D9
:1012E0001DB1F3400022C5E90032BDE8F0878B4212
:1012F00005D90DB1C5E9000100210846F5E7B3FAAB
:1013000083F1002946D1734502D3824200F2058160
:10131000841A6EEB030201209046002DE5D0C5E94A
:101320000048E2E7002A00F09080B2FA82F6002E30
:1013300040F0A4808A1A030C4FEA174E80B2BCB268
:101340000121B2FBFEFC0EFB1C2243EA024304FB1C
:101350000CF29A4207D9FB180CF1FF3802D29A42DC
:1013600000F2E080C4469B1AB3FBFEF20EFB123380
:1013700040EA034302FB04F49C4207D9FB1802F144
:10138000FF3002D29C4200F2CA8002461B1B42EA96
:101390000C40A5E7C1F120068B4022FA06F71F4357
:1013A0000EFA01F420FA06F32EFA06FE4FEA174968
:1013B000234300FA01F81FFA87FCBEFBF9F01C0C6E
:1013C00009FB10EE44EA0E4400FB0CFEA64502FAAF
:1013D00001F209D93C1900F1FF3A80F09C80A64542
:1013E00040F2998002383C44A4EB0E041FFA83FEBD
:1013F000B4FBF9F309FB13444EEA044403FB0CFC71
:10140000A44508D93C1903F1FF3E80F08280A44531
:101410007FD9023B3C4443EA0040A4EB0C04A0FB10
:1014200002EC64457346E14662D35FD05DB1B8EB30
:10143000030264EB090404FA06F622FA01F31E43E0
:10144000CC40C5E9006400214FE7B1FBF2FC010C80
:1014500041EA0E4180B240EA01423B4638463C46F2
:10146000B846BE462026B1FBF7F1A2EB080241EADE
:101470000C4166E7014618E710462CE7C6F120024A
:101480002EFA02F3B740B14020FA02F24FEA174EAB
:101490000A43B3FBFEF8BCB20EFB1833110C41EA51
:1014A000034108FB04F9B04089454FEA104380B27C
:1014B0003ED9791808F1FF3C01D289451FD8A1EB2C
:1014C0000901B1FBFEF909FB04F80EFB191192B2F8
:1014D00042EA0142424529D2BA1809F1FF31C4D289
:1014E0004245C2D2A9F102013A44BEE7F0459DD27D
:1014F000BEEB02036CEB070C0138E14696E7A7EB65
:1015000009094944A8F1020CB1FBFEF909FB04F8F2
:10151000DBE773467FE7504666E70846FDE63B4457
:10152000023A33E7ACF1020C3B441CE749469CE726
:10153000A1EB0901C446B1FBFEF909FB04F8C4E7BD
:10154000704700BF80B485B000AF78604FF0B04303
:101550001A6E4FF0B0417B6813430B664FF0B043F7
:101560001A6E7B681340FB60FB6800BF1437BD46F2
:1015700080BC704780B483B000AF78604FF0B04358
:101580001A6E7B68DB434FF0B04113400B6600BF1F
:101590000C37BD4680BC704780B500AF234B244A52
:1015A0001A60224B4FF000425A60204B00229A6092
:1015B0001E4B0022DA601D4B00221A611B4B0422D5
:1015C0005A611A4B00221A76184B00225A76174B92
:1015D00000229A76154B0122DA61144B002283F81F
:1015E0002020124B00225A62104B00229A620F4BAD
:1015F000002283F82C200D4B4FF480521A630B4BC2
:1016000007225A63094B07229A63084B002283F88A
:101610003C20064B0022DA64044803F0F9FA034642
:10162000002B01D000F0B4FC00BF80BD3C040020C2
:101630000024014080B582B000AF78607B681B68F1
:10164000054A934203D14FF40070FFF77BFF00BFC0
:101650000837BD4680BD00BF0024014080B582B080
:1016600000AF78607B681B68054A934203D14FF452
:101670000070FFF77FFF00BF0837BD4680BD00BF89
:101680000024014080B400AF034B044A1A6000BF3D
:10169000BD4680BC704700BF3C04002000240140D0
:1016A00080B582B000AF00233B8000237B6000F058
:1016B00069F803467B802D4800F098F878602C4B41
:1016C0001A882C4B1B889A4226D0294B1A88294B02
:1016D0001B889A421CD07B887A6802FB03F39B0824
:1016E000254AA2FB03235B091A46224B1B88D31A07
:1016F000642203FB02F21E4B1B8819461D4B1B88FC
:10170000CB1A92FBF3F39BB21E339BB21BB201E0E8
:1017100047F6FF733B801DE07B887A6803FB02F28B
:10172000164BA3FB0213D21A52081344DB0A4FF4E0
:101730007A7202FB03F3A3F53923A3F50C63104A75
:1017400082FB03129212DB17D31A9BB21E339BB299
:101750001BB23B803B881BB21B021BB23B803B8809
:101760001BB218460837BD4680BD00BF001000B050
:10177000C875FF1FA875FF1F9F00EE09010110002B
:10178000AD8BDB6880B582B000AF0023FB80002307
:101790003B60134800F02AF838603B68002B02D108
:1017A0000023FB8016E00F4B1B884FF6FF7293421D
:1017B0000BD00C4B1B881A4640F6E44303FB02F2A5
:1017C0003B68B2FBF3F3FB8004E0074A3B68B2FBE3
:1017D000F3F3FB80FB8818460837BD4680BD00BF89
:1017E000002000B4AA75FF1FD8084C0080B586B051
:1017F00000AF786000237B6107F1080300221A60C4
:101800005A609A60FFF7C8FE1A4804F020F80346B1
:10181000002B01D000F0BCFB7B68BB600023FB60A9
:1018200000233B6107F108031946124803F02CFD21
:101830000346002B01D000F0ABFB0E4803F008FC80
:101840000346002B01D000F0A3FB4FF0FF31094805
:1018500003F076FC074803F041FC064803F007FD5F
:101860007861044803F068FB7B6918461837BD4669
:1018700080BD00BF3C04002080B485B000AF78601C
:101880004FF0B0439A6C4FF0B0417B6813438B64C8
:101890004FF0B0439A6C7B681340FB60FB6800BF5D
:1018A0001437BD4680BC704780B500AF0420FFF7F9
:1018B000E3FF0120FFF7E0FF002202210B2004F0EC
:1018C0006CF90B2004F083F900BF80BD80B586B0B1
:1018D00000AFF860B9607A60FF23FB75FB68B3F175
:1018E000006F11D30B4B1B689A020B4B134003F193
:1018F0000063013BFA68934206D37A68B968F868D6
:1019000000F05AF80346FB7597F917301846183758
:10191000BD4680BDE075FF1F00FCFF0380B586B0AB
:1019200000AFF860B9607A60FF23FB75BB68B3F164
:10193000006F11D30B4B1B689A020B4B134003F142
:101940000063013BBA68934206D37A68B968F868C5
:1019500000F03AF90346FB7597F917301846183727
:10196000BD4680BDE075FF1F00FCFF0380B584B05D
:1019700000AF78603960FF23FB737B68B3F1006FC1
:1019800010D30B4B1B689A020A4B134003F1006300
:10199000013B7A68934205D33968786800F032F9E0
:1019A0000346FB7397F90F3018461037BD4680BDCC
:1019B000E075FF1F00FCFF0380B590B000AFF8603A
:1019C000B9607A60002387F83F30FB68BB63BB686F
:1019D0007B637B683B63FB68002B0CD0BB68002BF0
:1019E00009D07B6803F00703002B04D1FB6803F0E8
:1019F0000703002B02D06FF00503DAE000F092F944
:101A0000034687F83F3097F93F30002B40F0CF80F6
:101A100004F028FD0346002B40F0C680BB6B03F1A9
:101A20007842664B1B689902654B0B40B2FBF3F1A1
:101A300001FB03F3D31ADB0ABB61BA6B7B68134467
:101A400003F17843013B5D4A126891025C4A0A4007
:101A5000B3FBF2F101FB02F29B1ADA0ABB69D31A5B
:101A600001337B617B69012B05D9BB6BC3F30A038F
:101A7000C3F500633B63BB69FB6289E0FB6A03F566
:101A80008033DB023B61396BF86800F025F90346CF
:101A9000002B31D04B4B1B68002B03D1FA2387F866
:101AA0003F307EE0474B1B6839694FF400621846AF
:101AB00000F08AF8434B1A68BB6BC3F30A03134464
:101AC000796B3A6B92B218461FF0CEFA3B694FF42D
:101AD0000061184600F096F80346002B03D0FE2361
:101AE00087F83F305DE03B697B62364B1B683B62A9
:101AF0004FF40063FB6105E0BB6B7B627B6B3B6279
:101B00003B6BFB610023BB6226E03A6ABB6A13446D
:101B1000D3E90023796A012004F060FC0346002B1E
:101B200013D17B6AD3E900013A6ABB6A1344D3E953
:101B30000023994208BF904203D0FC2387F83F302E
:101B40000EE07B6A08337B6203E0FC2387F83F30BA
:101B500006E0BB6A0833BB62BA6AFB699A42D4D317
:101B600097F93F30002B1BD1BA6B3B6B1344BB631F
:101B70007A6B3B6B13447B637A683B6BD31AB3F588
:101B8000006F28BF4FF400633B63FB6A0133FB62C5
:101B9000BA697B691344FA6A9A42FFF46FAF00E0B6
:101BA00000BF04F081FC02E0FB2387F83F3097F987
:101BB0003F3018464037BD4680BD00BFE075FF1F6F
:101BC00000FCFF03A004002080B586B000AFF860E1
:101BD000B9607A600023FB75FB68002B02D0BB68FC
:101BE000002B02D16FF0050308E07B689BB21A4618
:101BF000B968F8681FF038FA97F91730184618379F
:101C0000BD4680BD80B588B000AF786039600023E4
:101C1000FB770123BB7700237B617B68BB617B681B
:101C2000002B02D16FF005034EE000F07BF8034675
:101C3000FB7797F91F30002B44D104F013FC0346C7
:101C4000002B3DD10223BB60BB6903F17842204BDE
:101C50001B6899021F4B0B40B2FBF3F101FB03F32E
:101C6000D31ADB0AFB60BA693B68134403F178437B
:101C7000013B174A12689102164A0A40B3FBF2F17F
:101C800001FB02F29B1ADA0AFB68D31A01333B61AB
:101C900007F1140207F108031146184604F0E4FCAA
:101CA0000346BB77BB7F002B07D0BB7F022B01D144
:101CB000012301E06FF00103FB7704F0F5FB01E085
:101CC000FB23FB7797F91F3018462037BD4680BDB0
:101CD000E075FF1F00FCFF0380B485B000AF7860A3
:101CE00039600023FB600023BB6011E07B68D3E90F
:101CF0000023B3F1FF3F08BFB2F1FF3F02D0012341
:101D0000FB6009E07B6808337B60BB680833BB601D
:101D1000BA683B689A42E9D3FB6818461437BD4657
:101D200080BC704780B582B000AFFB23FB7104F02C
:101D300099FB0346002B10D10B4B9B690A4A43F0D9
:101D400040439361084B4CF2FA321A6104F0ACFB49
:101D50000346002B01D10023FB7197F90730184689
:101D60000837BD4680BD00BF0040005880B485B034
:101D700000AF78604FF0B043DA6C4FF0B0417B6851
:101D80001343CB644FF0B043DA6C7B681340FB60C5
:101D9000FB6800BF1437BD4680BC704780B586B075
:101DA00000AF3B1D00221A605A609A60DA601A6127
:101DB0000120FFF7DBFF0420FFF7D8FF0220FFF729
:101DC000D5FF00224FF4C7611B4804F04FFF0022EB
:101DD00001214FF0904004F049FF4FF487637B608E
:101DE0000123BB600023FB6002233B613B1D1946BE
:101DF000114804F00DFD4FF400737B600123BB60BC
:101E00000023FB6000233B613B1D19460A4804F098
:101E1000FFFC01237B600123BB600023FB600223E6
:101E20003B613B1D19464FF0904004F0F1FC00BFB0
:101E30001837BD4680BD00BF0004004880B483B0A1
:101E400000AF78604FF0B043D3F8903023F0180221
:101E50004FF0B0417B681343C1F8903000BF0C379E
:101E6000BD4680BC7047000080B500AF02F0E2FCC8
:101E700000F034F8FFF792FF0AF01EFF01F090FA2D
:101E800001F006F80AF020FF104B1B68002B06D06B
:101E90000F4B1B68002B02D101F010F815E00B4B23
:101EA0001B68002BEED101F071FD0246094B1B6847
:101EB000D31A40F6B8329342E4D9074821F004F926
:101EC00001F064FD0346034A1360DBE7F8060020D7
:101ED000F4060020A4040020686C020880B59AB0C3
:101EE00000AF07F1200348220021184621F0EEF947
:101EF00007F1080300221A605A609A60DA601A61DA
:101F00005A6104F0E3FE0020FFF798FF1F4B1B68A7
:101F100023F4C0631D4A43F4007313601B4B1B681A
:101F200003F4C0637B607B6824233B628123FB62F4
:101F300001233B6400237B64B023BB640023FB6468
:101F400007F12003184605F00DFA0346002B01D0D7
:101F500000F01EF84F23BB600023FB6000233B61B1
:101F600000237B610023BB610023FB6107F10803B1
:101F70000221184605F078FD0346002B01D000F041
:101F800007F800BF6837BD4680BD00BF0004005899
:101F900080B400AF72B600BF00BFFDE780B400AFF1
:101FA0004FF0B043D3F890304FF0B04243F40043C9
:101FB000C2F8903000BFBD4680BC704780B485B089
:101FC00000AF78604FF0B0439A6D4FF0B0417B683E
:101FD00013438B654FF0B0439A6D7B681340FB60F1
:101FE000FB6800BF1437BD4680BC704780B58CB01D
:101FF00000AF3B1D2C220021184621F067F9224B2F
:10200000224A1A60204B1F229A601F4B00221A613D
:102010001D4B00225A611C4B00229A611A4B4FF053
:102020008042DA61184B00221A62174B4FF480721B
:102030005A62154806F0D4F90346002B01D0FFF789
:10204000A7FF114806F0CAFC0346002B01D0FFF79A
:102050009FFF00233B620023BB600023BB614FF066
:102060000053FB614FF48073FB623B1D0022194655
:10207000054806F037FA0346002B01D0FFF788FF2A
:1020800000BF3037BD4680BDA804002000280040B6
:1020900080B590B000AF786007F1080338220021C6
:1020A000184621F013F97B681B68164A934225D124
:1020B0004FF48033BB604FF48073FB6307F1080378
:1020C000184606F073F80346002B01D0FFF760FFB7
:1020D000FFF764FF4FF48060FFF770FF00220021DC
:1020E000022003F05AFD022003F071FD00220021BE
:1020F0002A2003F052FD2A2003F069FD00BF40377B
:10210000BD4680BD0028004080B582B000AF786039
:1021100005E010497868FEF775FD03467B600E49BF
:102120007868FFF71FF80346002BF2D105E0094954
:102130007868FEF765FD03467B6008497868FFF71D
:1021400025F80346002BF2D17B6818460837BD46B8
:1021500080BD00BF0000B443000034C3000034431E
:1021600080B483B000AF786039607B684FF00002C4
:102170001A607B680C4A5A607B680C4A9A607B68DC
:102180000A4ADA607B680A4A1A617B68094A5A611E
:102190007B684FF080429A617B683A68DA6100BFE1
:1021A0000C37BD4680BC7047BD3786356F12833A09
:1021B000CDCC4C3EA4707D3FB0B588B000AF786008
:1021C00039607B68DB6919463868FEF719FD0346FC
:1021D000FB617B685A697B681B6819461046FEF7ED
:1021E00019FE03461C467B685B6919464FF07E501A
:1021F000FEF706FD0346F9691846FEF70BFE034697
:1022000019462046FEF7FEFC03461A467B681A6014
:102210007B681B681946F869FEF7F2FC0346BB6150
:102220007B685A697B685B6819461046FEF7F2FDC9
:1022300003461C467B685B6919464FF07E50FEF7EB
:10224000DFFC03461D46B969B869FEF7E3FD0346A6
:1022500019462846FEF7DEFD034619462046FEF7DE
:10226000D1FC03461A467B685A607B685B68184657
:1022700023F0C7F8034628491846FEF7C3FC034677
:102280007B61BB6923F0004379691846FEF776FE4F
:1022900003463B617B689B691946386923F064F803
:1022A000F8607B68DC687B681A697B68DB681946C4
:1022B0001046FEF7A5FC03461D464FF07E51F86818
:1022C000FEF7A0FC03461946F868FEF757FE0346E2
:1022D00019462846FEF79EFD034619462046FEF79E
:1022E00091FC0346BB607B68BA689A607B68DC69D6
:1022F000F969B868FEF78EFD034619462046FEF7D9
:1023000081FC03461A467B68DA617B68DB69184604
:102310002037BD46B0BD00BF5F70893080B584B046
:1023200000AF786039607B6839681846FFF718FF9E
:102330000D493868FEF76EFD03460C491846FEF756
:102340001DFE0346FB60F86823F076F802467B68C2
:102350001A62F86823F0A8F802467B685A6200BF48
:102360001037BD4680BD00BFDB0F4940000034433D
:10237000B0B58CB000AF786039607B68DB69194616
:102380003868FEF73DFC03461846FFF7BDFEF862CD
:102390007B685A697B681B6819461046FEF73AFD50
:1023A00003461C467B685B6919464FF07E50FEF77A
:1023B00027FC0346F96A1846FEF72CFD034619462A
:1023C0002046FEF71FFC03461A467B681A607B68AE
:1023D0001B681946F86AFEF713FC0346BB627B686C
:1023E0005A697B685B6819461046FEF713FD034681
:1023F0001C467B685B6919464FF07E50FEF700FC77
:1024000003461D46B96AB86AFEF704FD034619463D
:102410002846FEF7FFFC034619462046FEF7F2FB6E
:1024200003461A467B685A607B685B68184622F050
:10243000E8FF034650491846FEF7E4FB03467B627B
:10244000BB6A23F00043796A1846FEF797FD0346FE
:102450003B627B689B691946386A22F085FFF86108
:102460007B68DC687B681A697B68DB681946104604
:10247000FEF7C6FB03461D464FF07E51F869FEF796
:10248000C1FB03461946F869FEF778FD0346194675
:102490002846FEF7BFFC034619462046FEF7B2FB6E
:1024A0000346BB617B68BA699A6034493868FEF7B5
:1024B000B1FC034632491846FEF760FD03467B61D6
:1024C000B9694FF07E50FEF79BFB03461A467B68C6
:1024D0001B6A19461046FEF79DFC03461C467869A8
:1024E00022F0AAFF0346B9691846FEF793FC03469B
:1024F00019462046FEF786FB03461A467B681A6299
:10250000B9694FF07E50FEF77BFB03461A467B68A5
:102510005B6A19461046FEF77DFC03461C46786947
:1025200022F0C2FF0346B9691846FEF773FC034662
:1025300019462046FEF766FB03461A467B685A6238
:102540007B685A6A7B681B6A1946104622F00AFFAC
:1025500038610B493869FEF75DFC034607491846A8
:10256000FEF70CFD0346FB607B68FA68DA61FB68E6
:1025700018463037BD46B0BD5F708930DB0F49402B
:102580000000344380B500AF01224FF400710248CF
:1025900004F06CFB00BF80BD0004004880B500AFB4
:1025A00000224FF40071024804F060FB00BF80BDC0
:1025B0000004004880B485B000AF03460A46FB71B2
:1025C0001346BB71BB7923F07F03FB73FB79012BAF
:1025D00004D1FB7B83F07F03DB43FB73BB795B00A0
:1025E000BB71FB7B002B03D0BB7983F01D03BB7158
:1025F000BB7918461437BD4680BC704780B584B09F
:1026000000AF7860FF23BB731F23FB7312E0FB7BDB
:102610007A6822FA03F3DBB203F001037B73BA7B1F
:102620007B7B11461846FFF7C5FF0346BB73FB7B58
:10263000013BFB73FB7B072BE9D8BB7BDB43DBB2A6
:1026400018461037BD4680BD80B584B000AF7860B5
:102650007B681B0EDBB23B737B681B0CDBB27B73AE
:102660007B681B0ADBB2BB737B68DBB2FB73FFF7D3
:1026700095FF07F10C014FF0FF330422064806F0E6
:102680000FFBFFF77FFF012001F094F900231846AC
:102690001037BD4680BD00BFF807002080B586B06A
:1026A00000AF786039607B681B0EDBB23B737B68E0
:1026B0001B0CDBB27B737B681B0ADBB2BB737B68D2
:1026C000DBB2FB73FFF76AFF07F10C014FF0FF333A
:1026D0000422194806F0E4FAFFF754FF012001F044
:1026E00069F9FFF75BFF07F108014FF0FF330422A0
:1026F000114806F06CFCFFF745FF3B7A1A067B7A1F
:102700001B041A43BB7A1B021343FA7A13437B61FF
:102710007B691A0A3B681A607869FFF76FFF034606
:10272000FB74FB7AFA7C9A4201D0012300E000237B
:1027300018461837BD4680BDF807002080B584B024
:1027400002AF80237B6000233B6000224FF40071C6
:10275000174804F08BFA3A46391D4FF0FF330093C7
:102760000423144806F023FE01224FF400711048A0
:1027700004F07CFA3B7819467B781846BB78FA78E7
:102780000192009303460A460B490C4820F0A4FC32
:102790000A48FDF745FD03469AB24FF0FF3307495B
:1027A000074808F03AF800BF0837BD4680BD00BFB3
:1027B00000040048F8070020886C0208E4040020A8
:1027C000780800202DE9B0438EB004AF794B012288
:1027D0001A604FF0FF3317227749784808F01DF848
:1027E0004FF000037B624FF000033B624FF00003A9
:1027F000FB6164237B610023BB617FE0704800F0D4
:1028000087FC6F4800F0B0FC6D4800F0D9FC786A96
:10281000FDF772FE6A4BD3E90623FDF70FFD024672
:102820000B4610461946FEF797F903467B62386A55
:10283000FDF762FE624BD3E90823FDF7FFFC024679
:102840000B4610461946FEF787F903463B62F869C6
:10285000FDF752FE5A4BD3E90A23FDF7EFFC02467F
:102860000B4610461946FEF777F90346FB61B96936
:10287000544B83FB01239A10CB17D21A13469B00AB
:1028800013445B00CA1A002A32D1BB69642203FBDD
:1028900002F27B6992FBF3F33B613B69494A82FB9D
:1028A00003129210DB17D31AFB60FA683B46232110
:1028B000184620F00BFDFB683A46D018FB68C3F1C0
:1028C0000A031A462E2120F001FD0023BB723A466E
:1028D0003B693D493D4820F0FFFB3C48FDF7A0FC2B
:1028E00003469AB24FF0FF333849344807F095FF5A
:1028F000322001F05FF8BB690133BB61BA697B69C3
:102900009A42FFF67BAF7869FEF730FA0346194624
:10291000786AFEF733FB03461A462D4B1A60786936
:10292000FEF724FA03461946386AFEF727FB0346EA
:102930001A46284B1A607869FEF718FA03461946BA
:10294000F869FEF71BFB03461A46234B1A60204B1F
:102950001B681846FDF7D0FD804689461D4B1B6855
:102960001846FDF7C9FD04460D461B4B1B6818466B
:10297000FDF7C2FD02460B46CDE90223CDE9004535
:1029800042464B461549114820F0A6FB0F48FDF77B
:1029900047FC03469AB24FF0FF330C49074807F053
:1029A0003CFF044B00221A6000BF2837BD46BDE83B
:1029B000B08300BFF4060020A86C0208780800204D
:1029C0000007002067666666C06C0208E404002009
:1029D000900900209409002098090020E46C020866
:1029E0002DE9B043B0B004AF4FF0FF332722574971
:1029F000574807F012FF642000F0DCFF4FF0FF3370
:102A00001A225449524807F008FF5348FFF71CFEAA
:102A10000A2000F0CFFF5148FFF716FE322000F0E9
:102A2000C9FF4FF0FF3311224D49494807F0F5FE29
:102A3000FFF784FE642000F0BDFF4A48FFF704FE64
:102A4000142000F0B7FF4848FFF7FEFD142000F007
:102A5000B1FF4648FFF7F8FD142000F0ABFF07F187
:102A60008C0319464248FFF719FED7F88C301B0C2F
:102A700087F89F30D7F88C2097F89F3007F10C002B
:102A80003C4920F029FB07F10C031846FDF7C8FB71
:102A900003469AB207F10C014FF0FF332C4807F0C0
:102AA000BCFE07F18C0319463348FFF7F7FDD7F852
:102AB0008C301B0A87F89E30D7F88C2097F89E3010
:102AC00007F10C002D4920F007FB07F10C03184615
:102AD000FDF7A6FB03469AB207F10C014FF0FF3356
:102AE0001B4807F09AFE97F89F30012B40F0A98110
:102AF00097F89E30C12B40F0A4814FF0FF33232282
:102B00001F49134807F089FE00F0BCFBC82000F005
:102B100051FF1C4B01221A604FF0FF3317221A4954
:102B20000B4807F07AFE4FF00003C7F8AC304FF0C7
:102B30000003C7F8A8304FF00003C7F8A43064239F
:102B4000C7F898300023C7F8A030B5E03C6D020804
:102B500078080020646D02081F0000B4982000B4BB
:102B6000806D0208020100B46F1F00B0730000FC0A
:102B7000E5000018946D020891000040B86D02084D
:102B8000DC6D0208F4060020A86C0208B14800F0D1
:102B9000BFFAB04800F0E8FAAE4800F011FBD7F8F1
:102BA000AC00FDF7A9FCAB4BD3E90623FDF746FBD0
:102BB00002460B4610461946FDF7CEFF0346C7F8FE
:102BC000AC30D7F8A800FDF797FCA24BD3E9082357
:102BD000FDF734FB02460B4610461946FDF7BCFFD5
:102BE0000346C7F8A830D7F8A400FDF785FC994B39
:102BF000D3E90A23FDF722FB02460B46104619468D
:102C0000FDF7AAFF0346C7F8A430D7F8A010924BEF
:102C100083FB01239A10CB17D21A13469B0013444F
:102C20005B00CA1A002A3FD1D7F8A030642203FB08
:102C300002F2D7F8983092FBF3F3C7F89430D7F844
:102C40009430854A82FB03129210DB17D31AC7F81F
:102C50009030D7F890203B462321184620F036FBD1
:102C6000D7F890303A46D018D7F89030C3F10A031D
:102C70001A462E2120F02AFB0023BB723A4607F1A8
:102C80000C00D7F89430754920F026FA07F10C03B0
:102C90001846FDF7C5FA03469AB207F10C014FF04A
:102CA000FF336F4807F0B9FD322000F083FED7F8FC
:102CB000A0300133C7F8A030D7F8A020D7F898305B
:102CC0009A42FFF663AFD7F89800FEF74FF8034635
:102CD0001946D7F8AC00FEF751F903461A46614B86
:102CE0001A60D7F89800FEF741F803461946D7F85E
:102CF000A800FEF743F903461A465B4B1A60D7F863
:102D00009800FEF733F803461946D7F8A400FEF7FB
:102D100035F903461A46554B1A60524B1B68184644
:102D2000FDF7EAFB804689464F4B1B681846FDF7C6
:102D3000E3FB04460D464D4B1B681846FDF7DCFBD4
:102D400002460B4607F10C00CDE90223CDE9004510
:102D500042464B46464920F0BFF907F10C0318469E
:102D6000FDF75EFA03469AB207F10C014FF0FF330C
:102D70003B4807F052FD3F4B00221A603E4B0122B8
:102D80001A604FF0FF3311223C49354807F045FDEA
:102D9000304BD3E90645334B1B681846FDF7ACFBB7
:102DA00002460B4620462946FDF746FA02460B46E8
:102DB00010461946FDF7D0FE034619463048FFF786
:102DC000ADFA244BD3E90845274B1B681846FDF79D
:102DD00093FB02460B4620462946FDF72DFA024694
:102DE0000B4610461946FDF7B7FE0346194625481F
:102DF000FFF794FA174BD3E90A451C4B1B6818469A
:102E0000FDF77AFB02460B4620462946FDF714FAE9
:102E100002460B4610461946FDF79EFE034619462C
:102E20001948FFF77BFA0B4BD3E90C2310461946E0
:102E3000FDF792FE034619461448FFF791F9002367
:102E400003E00D4B00221A6001231846B037BD463F
:102E5000BDE8B0830007002067666666006E020862
:102E6000780800209009002094090020980900208B
:102E7000246E0208F4060020F8060020806E020886
:102E80006007002088070020B0070020D807002036
:102E900080B500AFFFF7A4FD03461A46044B1A7035
:102EA000FF220449044807F03FFD00BF80BD00BF7A
:102EB000E0040020E4050020780800202DE9B04F50
:102EC000A6B012AF814B1B68002B00F0F980804B3D
:102ED0001B68002B40F0F4807E4800F019F903468F
:102EE0001A467D4B1A607B4800F03EF903461A46AD
:102EF0007A4B1A60774800F063F903461A46784B1C
:102F00001A60744800F088F903461A46754B1A6037
:102F1000714B1B68002B40F0D480704B1B68002B5A
:102F200040F0CF806E4B1B68002B40F0CA806D4B89
:102F30001B68002B40F0C580664BD3E906456A4B01
:102F40001B681846FDF7D8FA02460B46204629466C
:102F5000FDF772F902460B4610461946FDF7FCFDD7
:102F60000346FB645B4BD3E90845604B1B6818467E
:102F7000FDF7C2FA02460B4620462946FDF75CF9EA
:102F800002460B4610461946FDF7E6FD0346BB64B4
:102F9000504BD3E90A45564B1B681846FDF7ACFA6F
:102FA00002460B4620462946FDF746F902460B46E7
:102FB00010461946FDF7D0FD03467B64F96C4D4879
:102FC000FFF7D6F93864B96C4B48FFF7D1F9F863CD
:102FD000796C4A48FFF7CCF9B8633E4BD3E90C2330
:102FE00010461946FDF7B8FD034619464448FFF759
:102FF000E3F87863F86CFDF77FFAC7E90A01B86C6B
:10300000FDF77AFAC7E90801786CFDF775FAC7E9A8
:103010000601386CFDF770FAC7E90401F86BFDF79B
:103020006BFAC7E90201B86BFDF766FAC7E9000160
:10303000304B9B681846FDF75FFA82468B462E4B55
:103040009B681846FDF758FA804689462B4B9B68CB
:103050001846FDF751FA04460D46786BFDF74CFA19
:1030600002460B46CDE91023CDE90E45CDE90C898A
:10307000CDE90AABD7E90034CDE90834D7E9023409
:10308000CDE90634D7E90434CDE90434D7E9063470
:10309000CDE90234D7E90834CDE90034D7E90A2371
:1030A0001849194820F018F81748FDF7B9F80346F1
:1030B0009AB24FF0FF331449144807F0AEFB00E01A
:1030C00000BF5037BD46BDE8B08F00BFF8060020F6
:1030D000F406002000070020E4060020E806002097
:1030E000EC060020F0060020900900209409002042
:1030F000980900206007002088070020B007002002
:10310000D8070020946E0208E4040020780800200C
:1031100080B584B000AF786007F10C031946104801
:10312000FFF7BCFA0346002B01D001230FE0FB6838
:103130001BB21846FDF7CEF907A3D3E90023FDF72C
:103140005DFB02460B467968C1E906230023184659
:103150001037BD4680BD00BF0000000000C06640C3
:10316000C70000240000000080B584B000AF786084
:1031700007F10C0319461048FFF790FA0346002B9D
:1031800001D001230FE0FB681BB21846FDF7A2F93E
:1031900007A3D3E90023FDF731FB02460B4679680C
:1031A000C1E90823002318461037BD4680BD00BF83
:1031B0000000000000C06640CD00002800000000B4
:1031C00080B584B000AF786007F10C031946104851
:1031D000FFF764FA0346002B01D001230FE0FB68E0
:1031E0001BB21846FDF776F907A3D3E90023FDF7D4
:1031F00005FB02460B467968C1E90A2300231846FD
:103200001037BD4680BD00BF0000000000C0664012
:10321000CB00002C0000000080B584B000AF7860C7
:1032200007F10C0319461648FFF738FA0346002B3E
:1032300001D0012318E0FB681BB21846FDF74AF9DC
:103240000BA3D3E90023FDF7D9FA02460B4610463B
:10325000194609A3D3E90023FCF7EEFF02460B460B
:103260007968C1E90C23002318461037BD4680BD9C
:103270006666666666E63240000000000010714037
:10328000EF00001480B592B000AF07F14403194677
:103290002448FFF703FA7A6C3B1D234918461FF0B8
:1032A0001BFF3B1D1846FCF7BBFF03469AB2391DB6
:1032B0004FF0FF331D4807F0B0FA07F144031946F9
:1032C0001B48FFF7EBF97A6C3B1D1A4918461FF0B3
:1032D00003FF3B1D1846FCF7A3FF03469AB2391DB6
:1032E0004FF0FF33114807F098FA07F144031946ED
:1032F0001148FFF7D3F97A6C3B1D104918461FF0AF
:10330000EBFE3B1D1846FCF78BFF03469AB2391DB6
:103310004FF0FF33054807F080FA00BF4837BD463D
:1033200080BD00BFE5000018F46E02087808002098
:10333000B300007C106F020891000040286F020863
:1033400080B485B000AF78604FF0B043DA6C4FF0D6
:10335000B0417B681343CB644FF0B043DA6C7B68B9
:103360001340FB60FB6800BF1437BD4680BC70474C
:1033700080B485B000AF78604FF0B0439A6D4FF0E5
:10338000B0417B6813438B654FF0B0439A6D7B6807
:103390001340FB60FB6800BF1437BD4680BC70471C
:1033A00080B500AF1B4B1C4A1A601A4B4FF4827257
:1033B0005A60184B00229A60164B4FF4E062DA60B4
:1033C000144B00221A61134B00225A61114B4FF427
:1033D00000729A610F4B2022DA610E4B00221A62B2
:1033E0000C4B00225A620B4B00229A62094B0722B7
:1033F000DA62084B00221A63064B00225A63054822
:1034000005F07AFB0346002B01D0FEF7C1FD00BF9B
:1034100080BD00BFF80700200038004080B588B0AC
:1034200000AF786007F10C0300221A605A609A60BE
:10343000DA601A617B681B68194A93422CD14FF4F9
:103440008040FFF795FF0220FFF77AFF0120FFF78A
:1034500077FF4FF4C043FB6002233B6100237B6195
:103460000023BB610523FB6107F10C0319460D48DE
:1034700003F0CEF94FF48063FB6002233B6100232D
:103480007B610023BB610523FB6107F10C03194637
:103490004FF0904003F0BCF900BF2037BD4680BD1F
:1034A000003800400004004880B400AF034B012204
:1034B000C3F8882000BFBD4680BC70470004005898
:1034C00080B400AF00BFBD4680BC704780B400AF81
:1034D00000BFBD4680BC704780B500AF01F0CAF99F
:1034E000FFF7E2FF012003F083FC00BF80BD80B541
:1034F00000AF01F0CDF901F019F800BF80BD80B533
:1035000000AF01F0B7F90121002003F0EDFB00BF8F
:1035100080BD80B500AF01F0BBF900BF80BD80B4B5
:1035200000AF00BFBD4680BC704780B400AF00BF95
:10353000FDE780B400AF00BFFDE780B400AF00BF7F
:10354000FDE780B400AF00BFFDE780B400AF00BF6F
:10355000FDE780B400AF00BFBD4680BC704780B4BB
:1035600000AF00BFBD4680BC704780B400AF00BF55
:10357000BD4680BC704780B400AF00BFBD4680BC74
:103580007047000080B500AF024805F063FA00BF45
:1035900080BD00BFA804002080B500AF024802F043
:1035A000ADFD00BF80BD00BF0C09002080B500AF9D
:1035B000024807F085FA00BF80BD00BF78080020F0
:1035C00080B500AF024805F0F5F800BF80BD00BF30
:1035D000A804002080B500AF024806F0FFFE00BF3F
:1035E00080BD00BF5C08002080B485B000AF78606B
:1035F0004FF0B0435A6E4FF0B0417B6813434B66B7
:103600004FF0B0435A6E7B681340FB60FB6800BF0D
:103610001437BD4680BC704780B500AF064B08220A
:103620001A60054806F058FC0346002B01D0FEF74F
:10363000AFFC00BF80BD00BF5C08002080B582B039
:1036400000AF78600120FFF7CFFF00220021322079
:1036500002F0A3FA322002F0BAFA00BF0837BD46E2
:1036600080BD80B483B000AF78604FF0B0439B68FA
:1036700023F400424FF0B0417B6813438B6000BFDE
:103680000C37BD4680BC704780B400AF024B1B684E
:103690001846BD4680BC70478075FF1F80B400AFE0
:1036A000034B1B68DBB21846BD4680BC704700BFA9
:1036B0008475FF1F80B400AF034B1B681B0A1846BC
:1036C000BD4680BC704700BF8475FF1F80B500AF4A
:1036D0000020FFF7C6FF1EF053FA0E4B01221A70AE
:1036E00000F0A0F91EF0DCFC0B481EF087FD0B4B30
:1036F0004FF400421A6102201EF08EFDFDF7C2FF5A
:1037000000F022FA1DF00AFC012101201DF046FC08
:1037100000BF80BD68080020ED3800080040005858
:1037200080B500AF1DF06AFC00BF80BD80B582B0DF
:1037300000AF0023FB71FEF725F80346BB80BB8872
:1037400040F6B832934202D9FE23FB7114E0BB88E5
:10375000B3F5E16F02D20023FB710DE0BB88A3F546
:10376000E1631A461346DB019B1A5B001A46054BC0
:10377000A3FB0223DB09FB71FB7918460837BD4622
:1037800080BD00BFB5814E1B80B588B000AF00235F
:10379000FB833B1D184600F0A5F9BB681846FDF7F2
:1037A00015FD0346FB83B7F91E3018462037BD468A
:1037B00080BD90B587B000AF786000237B61FFF7D4
:1037C00063FF78617B69B3F1FF3F38D101F06EF898
:1037D000044601F07FF8034623443B6101F070F892
:1037E000F8603B691A0E7B680733D2B21A703B69E6
:1037F0001A0C7B680633D2B21A703B691A0A7B68CE
:103800000533D2B21A707B6804333A69D2B21A70A7
:10381000FB681A0E7B680333D2B21A70FB681A0C6D
:103820007B680233D2B21A70FB681A0A7B680133D4
:10383000D2B21A70FB68DAB27B681A7031E07B682A
:1038400007337A69D2B21A707B691A0A7B68063329
:10385000D2B21A707B691A0C7B680533D2B21A7027
:103860007B691A0E7B680433D2B21A70FFF716FF19
:1038700078617B6803337A69D2B21A70FFF71AFF56
:1038800078617B6802337A69D2B21A707B691A0A4E
:103890007B680133D2B21A707B691B0CDAB27B6889
:1038A0001A7000BF1C37BD4690BD90B583B000AF05
:1038B0007860FFF7E9FE02467B681A607B681B6848
:1038C000B3F1FF3F0DD100F0F1FF044600F0F8FF27
:1038D00003465C4000F0FEFF034684EA03027B6877
:1038E0001A6000BF0C37BD4690BD000080B586B0A1
:1038F00002AF7860396007F1080318461DF08EFCAE
:10390000BB68B7F90C200092074A1021786800F0D4
:103910001DF87868FCF784FC03469AB23B681A806D
:1039200000BF1037BD4680BD3C6F020880B500AFB8
:10393000012102201DF002FB00BF80BD80B500AF59
:10394000002102201DF0FAFA00BF80BD0CB480B542
:1039500084B000AF7860396007F11C03FB60396800
:10396000FB68BA6978681DF02BFE00BF1037BD46B2
:10397000BDE8804002B0704780B483B000AF78608B
:10398000002318460C37BD4680BC704780B582B016
:1039900000AF00237B60064B1B78002B02D000F0A9
:1039A00061FA78607B6818460837BD4680BD00BF65
:1039B0006808002080B582B000AF78607B68184648
:1039C00000F0D7FA00BF0837BD4680BD80B485B08F
:1039D00000AF78604FF0B043DA6C4FF0B0417B68D5
:1039E0001343CB644FF0B043DA6C7B681340FB6049
:1039F000FB6800BF1437BD4680BC704780B483B0FD
:103A000000AF7860064BD3F8902005497B681343DC
:103A1000C1F8903000BF0C37BD4680BC704700BF76
:103A20000008005880B586B000AF4FF48040FFF723
:103A3000E5FF00F059FF00F05DFF00F061FF3B1D66
:103A400000221A605A609A60DA601A610123BB6032
:103A50000023FB6003233B610120FFF7B7FF022037
:103A6000FFF7B4FF0220FFF7B1FF0220FFF7AEFF20
:103A700001237B603B1D19464FF0904002F0C8FEC9
:103A80004FF480637B603B1D1946154802F0C0FE71
:103A900008237B603B1D1946114802F0B9FE102334
:103AA0007B603B1D19460E4802F0B2FE0022012148
:103AB0004FF0904003F0DAF800224FF4806108489C
:103AC00003F0D4F800220821054803F0CFF80022C3
:103AD0001021034803F0CAF800BF1837BD4680BD67
:103AE0000004004880B586B000AF7860114B7B6160
:103AF000114B3B61114BFB60FDF7D2FD03461B12DE
:103B00001BB21846FDF732F903463B617B687A69C0
:103B10009A607B683A695A607B68FA681A607B68C9
:103B2000074ADA607B68074A1A610023184618378B
:103B3000BD4680BD000048420000904100007A442C
:103B40000D093E00AB03050080B483B000AF002335
:103B50007B607B6818460C37BD4680BC704780B4DC
:103B600000AF01231846BD4680BC704780B582B0C7
:103B700000AF786039601FF017FC034616221A6008
:103B80004FF0FF3318460837BD4680BD80B582B080
:103B900000AF78604FF0FF317868FFF7E7FF00BFB4
:103BA000FDE780B586B000AFF860B9607A600023A9
:103BB0007B610AE0AFF300800146BB685A1CBA6023
:103BC000CAB21A707B6901337B617A697B689A4259
:103BD000F0DB7B6818461837BD4680BD80B586B0DF
:103BE00000AFF860B9607A6000237B6109E0BB68D0
:103BF0005A1CBA601B781846AFF300807B6901330A
:103C00007B617A697B689A42F1DB7B6818461837DA
:103C1000BD4680BD80B483B000AF78604FF0FF3305
:103C200018460C37BD4680BC704780B483B000AFE7
:103C3000786039603B684FF400525A6000231846A0
:103C40000C37BD4680BC704780B483B000AF78604D
:103C5000012318460C37BD4680BC704780B485B040
:103C600000AFF860B9607A60002318461437BD468B
:103C700080BC704780B586B000AF7860144A154BA1
:103C8000D31A7B617B693B61134B1B68002B02D10C
:103C9000114B124A1A60104B1A687B6813443A6938
:103CA0009A4207D21FF080FB03460C221A604FF0A5
:103CB000FF3309E0084B1B68FB60074B1A687B6801
:103CC0001344054A1360FB6818461837BD4680BD8B
:103CD00000000120000400006C08002030260020B5
:103CE00080B400AF00BFBD4680BC704780B483B0D5
:103CF00000AF78607B689B6818460C37BD4680BC77
:103D00007047000080B582B000AF0023FB71144BF8
:103D10001B7883F00103DBB2002B1BD0114B4FF05B
:103D2000FF321A63FEF762F900F056F84FF4807123
:103D30000C4804F0E3FC0B4B4FF0FF321A630948C8
:103D400004F01AFE002000F0D3F900F05FF8044BF5
:103D500001221A70FB7918460837BD4680BD00BFA6
:103D600070080020A804002080B58EB000AF7860F5
:103D7000002387F8373007F108032C22002118466A
:103D80001FF0A4FA00F028F8114B1B687A6813445E
:103D90007B6000237B627B68DB43FB600023FB616D
:103DA0004FF000533B624FF480733B6307F108030D
:103DB00001221946074804F095FB0346002B01D069
:103DC000FEF7E6F897F8373018463837BD4680BD1D
:103DD00074080020A804002080B582B000AF002342
:103DE000FB71084B0122DA654FF48071064804F03C
:103DF00085FC054B4FF0FF321A63FB7918460837F4
:103E0000BD4680BD00280040A804002080B500AF5A
:103E100000F08EF90346034A1360024B1B681846F4
:103E200080BD00BF7408002080B400AF024B1B6847
:103E30001846BD4680BC70477408002080B582B02B
:103E400000AF00237B6000F073F90246044B1B684F
:103E5000D31A7B607B6818460837BD4680BD00BF1B
:103E60007408002080B582B000AF00237B60064B51
:103E70001B78002B02D000F05BF978607B68184655
:103E80000837BD4680BD00BF7008002080B483B0F5
:103E900000AF00237B6003237B607B6818460C37F0
:103EA000BD4680BC7047B0B584B000AF78600021DB
:103EB000F960796800200A460346950D94024FF494
:103EC0007A724FF0000320462946FDF7A5F9024615
:103ED0000B461346FB60FB6818461037BD46B0BD65
:103EE0002DE9B00F85B000AF78600021F9607968E6
:103EF00000200C460546204629464FF0000A4FF0A8
:103F0000000B4FEA411B4BEAD06B4FEA401A504678
:103F10005946021B61EB05034FF000004FF0000112
:103F2000990041EA9271900002460B4612EB040898
:103F300043EB05094FF000024FF000034FEAC903BD
:103F400043EA58734FEAC8029046994640464946AC
:103F50004FF000024FF00003820A42EA81528B0ABE
:103F60001346FB60FB6818461437BD46BDE8B00F2A
:103F7000704780B584B000AF78607868FFF793FF32
:103F8000F86000F0D5F8B86000E000BF00F0D0F8AD
:103F90000246BB68D31AFA689A42F6D800BF00BF3F
:103FA0001037BD4680BD80B582B000AF78601DF08F
:103FB00035FF00BF0837BD4680BD80B584B000AF77
:103FC000786000F0A5F8F860FB680133184600F04F
:103FD0008FF800BF1037BD4680BD2DE9B04F8CB0C3
:103FE00000AF78610023FB6200F0A2F8B86200F035
:103FF0008FF878627B6A0022BB60FA604FF00002A3
:104000004FF00003B9680B000022B96A00200C468B
:10401000054612EB040843EB0509C7E90689D7E911
:1040200006014FF000024FF00003820A42EA81527B
:104030008B0A1346FB62BB6900223B607A603B68D7
:10404000C3F3090A4FF0000BC7E906ABBB6918467A
:10405000FFF746FF03469AB27B691A80FB6A18464F
:104060003037BD46BDE8B08F80B582B000AF786014
:104070007A680021034804F011FD00BF0837BD46EF
:1040800080BD00BFA804002080B582B000AF78607A
:104090007A680121034804F001FD00BF0837BD46DE
:1040A00080BD00BFA804002080B582B000AF00230F
:1040B0007B600021044804F009FD78607B681846A5
:1040C0000837BD4680BD00BFA804002080B582B07F
:1040D00000AF00237B600121044804F0F7FC786006
:1040E0007B6818460837BD4680BD00BFA804002085
:1040F00080B582B000AF78607A680221034804F08E
:10410000CDFC00BF0837BD4680BD00BFA80400201D
:1041100080B582B000AF0221044804F0D7FC78607B
:104120007B6818460837BD4680BD00BFA804002044
:1041300080B582B000AF0B48FFF7D8FD786003E090
:104140000848FFF7D3FD78600648FFF7CFFD024629
:104150007B689342F4D17B68DB4318460837BD4641
:1041600080BD00BF0028004080B485B000AF7860FB
:104170004FF0B043DA6C4FF0B0417B681343CB642F
:104180004FF0B043DA6C7B681340FB60FB6800BF04
:104190001437BD4680BC704780B485B000AF7860EE
:1041A0004FF0B0431A6E4FF0B0417B6813430B667B
:1041B0004FF0B0431A6E7B681340FB60FB6800BF92
:1041C0001437BD4680BC704780B483B000AF7860C0
:1041D0004FF0B0431A6E7B68DB434FF0B0411340A1
:1041E0000B6600BF0C37BD4680BC704780B500AF82
:1041F000224B234A1A60214B4FF4E1325A601F4B85
:1042000000229A601D4B0022DA601C4B00221A61CA
:104210001A4B0C225A61194B00229A61174B00224B
:10422000DA61164B00221A62144B00225A62134BB9
:1042300000229A62114806F0A0FA0346002B01D032
:10424000FDF7A6FE00210D4808F04CFC0346002BAC
:1042500001D0FDF79DFE0021084808F081FC0346CF
:10426000002B01D0FDF794FE044808F003FC034640
:10427000002B01D0FDF78CFE00BF80BD7808002028
:104280000038014080B596B000AF786007F1440374
:1042900000221A605A609A60DA601A6107F10C0312
:1042A0003822002118461FF011F87B681B682F4A3E
:1042B000934256D10123FB604FF440333B6107F139
:1042C0000C03184603F072FF0346002B01D0FDF7E4
:1042D0005FFE4FF48040FFF75FFF0220FFF744FFCF
:1042E000C0237B640223BB640023FB6402233B6581
:1042F00007237B6507F1440319461D4802F088FA3D
:104300001C4B1D4A1A601B4B12225A60194B10227B
:104310009A60184B0022DA60164B80221A61154B06
:1043200000225A61134B00229A61124B0022DA617B
:10433000104B00221A620F4801F066FC0346002B66
:1043400001D0FDF725FE7B680A4ADA67094A7B68D7
:10435000936200220221242001F01FFC242001F09E
:1043600036FC00BF5837BD4680BD00BF0038014055
:10437000000400480C0900200800024080B582B00B
:1043800000AF78607B681B680B4A93420FD14FF4F3
:104390008040FFF719FFC021084802F099FB7B68B5
:1043A000DB6F184601F0D8FC242001F01EFC00BF92
:1043B0000837BD4680BD00BF0038014000040048FA
:1043C00080B483B000AF78604FF0B0431A6C4FF008
:1043D000B0417B6813430B6400BF0C37BD4680BC03
:1043E000704780B483B000AF78604FF0B0431A6C70
:1043F0007B68DB434FF0B04113400B6400BF0C37C8
:10440000BD4680BC7047000080B483B000AF7860C8
:10441000064BD3F8802005497B681343C1F88030F0
:1044200000BF0C37BD4680BC704700BF0008005875
:1044300080B582B000AF7860074A7B681360FDF7F3
:1044400033FAFFF7D3FE4FF08060FFF7DDFF002364
:1044500018460837BD4680BD7009002080B500AF02
:104460004FF48040FFF7ACFF4FF48040FFF7B9FFF7
:104470000448FFF783FF0F2001F0B7FB0023184625
:1044800080BD00BF7808002080B582B000AF7860A2
:104490000B467B807B881A467968044806F090FAC0
:1044A000002318460837BD4680BD00BF78080020AD
:1044B00080B584B000AF7860194A7B6813604FF410
:1044C0000013BB6007F1080393E80600154808F0E5
:1044D00044FA00BF134B1B68DB6903F48033B3F568
:1044E000803FF7D000BF0F4B1B68DB6903F48003EC
:1044F000B3F5800FF7D10B4B1B689A68094B1B680B
:1045000042F480029A60074808F082FA01220649C4
:10451000044806F009FA002318461037BD4680BD4E
:1045200074090020780800206C09002080B500AFD5
:10453000084806F022F90346002B01D0FDF728FDBC
:10454000054801F061FB0346002B01D0FDF720FD7B
:1045500000BF80BD780800200C09002080B582B023
:1045600000AF78607B681B68054A934203D1054B16
:104570001B680020984700BF0837BD4680BD00BFBC
:10458000003801407009002080B582B000AF78602B
:104590007B681B680D4A934213D10D4B1B68002B9F
:1045A0000AD07B68D3F89030002B05D1084B1B68EC
:1045B000002201210748984701220649786806F041
:1045C000B3F900BF0837BD4680BD00BF00380140C9
:1045D000740900206C0900200D488546FFF780FB18
:1045E0000C480D490D4A002302E0D458C45004334E
:1045F000C4188C42F9D30A4A0A4C002301E0136024
:104600000432A242FBD31EF0D5FEFDF72DFCFEE7DF
:1046100000000120000000201C040020A4890208E2
:104620002004002030260020FEE780B485B000AFD3
:1046300078604FF0B043DA6C4FF0B0417B681343C1
:10464000CB644FF0B043DA6C7B681340FB60FB68CF
:1046500000BF1437BD4680BC7047000080B586B0EF
:1046600000AF3B1D00221A605A609A60DA601A613E
:104670000420FFF7DAFF10237B600123BB600023D7
:10468000FB6003233B613B1D1946124802F0C0F852
:1046900020237B603B1D19460E4802F0B9F8082321
:1046A0007B603B1D19460B4802F0B2F80022202126
:1046B000084802F0DBFA00221021064802F0D6FA80
:1046C00000220821034802F0D1FA002318461837C7
:1046D000BD4680BD0008004880B582B000AF0346EB
:1046E000FB71FB79032B4BD801A252F823F000BFDA
:1046F00001470008214700084147000861470008BA
:1047000000220821214802F0B1FA002210211F489E
:1047100002F0ACFA002220211C4802F0A7FA30E097
:1047200001220821194802F0A1FA0122102117489C
:1047300002F09CFA00222021144802F097FA20E0AF
:1047400001220821114802F091FA012210210F489C
:1047500002F08CFA012220210C4802F087FA10E0C6
:1047600001220821094802F081FA0022102107489D
:1047700002F07CFA01222021044802F077FA00E0DE
:1047800000BF002318460837BD4680BD000800481A
:1047900080B400AF00231846BD4680BC704780B48B
:1047A00000AF01231846BD4680BC704780B400AFFF
:1047B00001231846BD4680BC704780B485B000AF69
:1047C0000346FB71FB79002B02D10F23FB6001E054
:1047D0001623FB60FB6818461437BD4680BC704743
:1047E00080B400AF044B5B68034A43F0010353609D
:1047F00000BFBD4680BC7047002004E080B400AF1D
:10480000044B5B68034A43F00203536000BFBD469C
:1048100080BC7047002004E080B400AF044B5B68AC
:10482000034A43F00403536000BFBD4680BC704799
:10483000002004E080B582B000AF0023FB710320AC
:1048400001F0A0F903F0D4FA0346094A13600F20DF
:10485000FFF792F80346002B02D00123FB7101E021
:10486000FEF75DFEFB7918460837BD4680BD00BFE8
:104870000000002080B400AF044B1B68034A23F003
:104880000203136000BFBD4680BC704710E000E02B
:1048900080B400AF044B1B68034A43F0020313606B
:1048A00000BFBD4680BC704710E000E080B400AFA0
:1048B000024B1B681846BD4680BC70479075FF1FB1
:1048C00080B400AF024B1B681846BD4680BC7047E1
:1048D0009475FF1F80B400AF024B1B681846BD469D
:1048E00080BC70479875FF1F80B500AFFFF778FF59
:1048F00000BF80BD80B500AFFFF780FF00BF80BD67
:1049000080B500AFFFF788FF00BF80BD80B483B0E3
:1049100000AF786039607B681B6823F0E0723B6809
:104920001A437B681A6000BF0C37BD4680BC7047D5
:1049300080B483B000AF78607B681B6803F0E073DD
:1049400018460C37BD4680BC704780B485B000AFB8
:10495000F860B9607A60FB685A69BB6803F00403C9
:10496000072101FA03F3DB431A40BB6803F0040399
:10497000796801FA03F31A43FB685A6100BF1437E0
:10498000BD4680BC704780B483B000AF78603960AA
:104990007B685A693B6803F00403072101FA03F3BB
:1049A0001A403B6803F0040322FA03F318460C375D
:1049B000BD4680BC704780B483B000AF78607B6830
:1049C000DB6803F44063002B01D1012300E00023E6
:1049D00018460C37BD4680BC704780B485B000AF28
:1049E000F860B9607A60FB689A6ABB6803F01F03DD
:1049F0000F2101FA03F3DB431A407B689B0E03F09F
:104A00000F01BB6803F01F0301FA03F31A43FB68AD
:104A10009A6200BF1437BD4680BC704780B483B033
:104A200000AF786039607B689A6A3B68C3F3110312
:104A30001A437B689A6200BF0C37BD4680BC704742
:104A400080B483B000AF786039607B689A6A3B6855
:104A5000C3F31103DB431A407B689A6200BF0C3733
:104A6000BD4680BC704780B485B000AFF860B960C7
:104A70007A60FB685A69BB681B02DB431A40BB685B
:104A800019027B680B4023F07C4323F0FF031A4399
:104A9000FB685A6100BF1437BD4680BC704780B4C4
:104AA00083B000AF78607B689B6823F0104323F0ED
:104AB000170343F080527B689A6000BF0C37BD46F5
:104AC00080BC704780B483B000AF78607B689B681F
:104AD00023F0104323F017037A68936000BF0C376C
:104AE000BD4680BC704780B483B000AF78607B68FF
:104AF0009B6803F08053B3F1805F01D1012300E094
:104B0000002318460C37BD4680BC704780B483B084
:104B100000AF78607B689B6823F0004323F01703A5
:104B200043F001027B689A6000BF0C37BD4680BC31
:104B3000704780B483B000AF78607B689B6823F0D7
:104B4000004323F0170343F002027B689A6000BF22
:104B50000C37BD4680BC704780B483B000AF78602E
:104B60007B689B6803F00103012B01D1012300E066
:104B7000002318460C37BD4680BC704780B483B014
:104B800000AF78607B689B6803F00203022B01D1C1
:104B9000012300E0002318460C37BD4680BC704757
:104BA00080B483B000AF78607B689B6823F00043DB
:104BB00023F0170343F004027B689A6000BF0C37B0
:104BC000BD4680BC704780B483B000AF78607B681E
:104BD0009B6823F0004323F0170343F010027B6827
:104BE0009A6000BF0C37BD4680BC704780B483B06C
:104BF00000AF78607B689B6803F00403042B01D14D
:104C0000012300E0002318460C37BD4680BC7047E6
:104C100080B588B000AF78600023FB770023BB61CC
:104C200000237B610023FB607B68002B01D1012303
:104C30007EE17B681B69002B7B689B6D002B09D193
:104C40007868FCF7F7FC7B680022DA657B68002255
:104C500083F854207B681B681846FFF744FF03461F
:104C6000002B15D17B681B681846FFF718FF9E4B79
:104C70001B689B099D4AA2FB03239B0901335B0030
:104C8000FB6002E0FB68013BFB60FB68002BF9D195
:104C90007B681B681846FFF726FF0346002B0DD1E3
:104CA0007B689B6D43F010027B689A657B68DB6DC7
:104CB00043F001027B68DA650123FB777B681B68A0
:104CC0001846FFF793FF38617B689B6D03F0100374
:104CD000002B40F024813B69002B40F020817B6851
:104CE0009B6D23F4817343F002027B689A657B68B5
:104CF0001B681846FFF730FF0346002B40F0A780E3
:104D00007B689A687B681B7E9B031A437B685B7E8B
:104D1000DB031A437B689B7E5B0313437A68126B49
:104D2000002A02D04FF4805200E000221A437B6830
:104D3000DB681A437B681B69002B04DA7B681B69FC
:104D400023F0004301E04FF400131A437B6893F80B
:104D50002C305B001343BA691343BB617B6893F843
:104D60002030012B14D17B689B7E002B04D1BB69C2
:104D700043F48033BB610BE07B689B6D43F0200202
:104D80007B689A657B68DB6D43F001027B68DA65BE
:104D90007B685B6A002B09D07B685B6A03F4E07276
:104DA0007B689B6A1343BA691343BB617B681B68CA
:104DB000DB6823F4FE3323F4FF737A681268B96961
:104DC0000B43D3607B685B6803F040427B68DB6C1D
:104DD00013437A6913437B617B6893F83C30012B62
:104DE00011D17B685B6803F040427B681B6C1A43FF
:104DF0007B685B6C1A437B689B6C1A437B6913432B
:104E000043F001037B617B681B681A69384B1340D0
:104E10007A68126879690B4313617B685B68B3F148
:104E2000404F14D07B685B68B3F1804F0FD07B6834
:104E30005B68B3F1004F0AD02E4B1B6823F470124D
:104E40007B685B6803F470132A4913430B607B682B
:104E500018687B685B6B1A460021FFF776FD7B685C
:104E600018687B689B6B1A462349FFF76EFD7B68C9
:104E70001B69002B08D17B681B689A6A7B681B68DA
:104E800062F00F029A6217E07B681B69B3F5001F9E
:104E900012D17B681B689B6A7B68DB69013B9B00C6
:104EA00003F01C036FF00F0202FA03F17B681A6E25
:104EB0007B681B680A439A627B681B68002118465E
:104EC000FFF761FD02467B685B6B9A4216D17B68F7
:104ED0000022DA657B689B6D23F0030343F0010237
:104EE0007B689A6523E000BF00000020632D3E052B
:104EF00002FCFF1F0827014004FFFF037B689B6D36
:104F000023F0120343F010027B689A657B68DB6D27
:104F100043F001027B68DA650123FB7707E07B68D9
:104F20009B6D43F010027B689A650123FB77FB7F42
:104F300018462037BD4680BD80B584B000AF78608C
:104F40007B68002B01D101237AE07B689B6D43F0E5
:104F500002027B689A65786800F0CEFA0346FB731C
:104F6000FB7B002B0FD1786800F092FB0346FB73AC
:104F7000FB7B002B02D17B6801229A657B681B6852
:104F80001846FFF79FFD7B681B685B687A681268AC
:104F900023F4677323F0030353607B681B6840F2BC
:104FA0009F321A607B681B68D9687B681A68264B39
:104FB0000B40D3607B681B685A697B681B6822F0D2
:104FC00007025A617B681B689B6A7B681B6800222A
:104FD0009A627B681B681A6A7B681B6802F0F02281
:104FE0001A627B681B685A6A7B681B6802F0F022B1
:104FF0005A627B681B68DA6A7B681B6802F0F022E1
:10500000DA627B681B681A697B681B6822F0404281
:105010001A610E4B1B680D4A23F0FE73136078680B
:10502000FCF71CFB7B6800221A667B680022DA65AD
:105030007B6800229A657B68002283F85420FB7B02
:1050400018461037BD4680BD00023E830827014048
:1050500080B584B000AF78607B681B681846FFF7A6
:10506000C5FD0346002B32D17B6893F85430012BE9
:1050700001D102232EE07B68012283F85420786856
:1050800000F080FA0346FB73FB7B002B1AD17B6890
:105090009B6D23F4706323F0010343F480727B68FB
:1050A0009A657B680022DA657B681B681C221A609F
:1050B0007B68002283F854207B681B681846FFF742
:1050C0006FFD06E07B68002283F8542001E0022394
:1050D000FB73FB7B18461037BD4680BD80B584B09E
:1050E00000AF78607B6893F85430012B01D1022324
:1050F00022E07B68012283F85420786800F0FCF9F4
:105100000346FB73FB7B002B11D1786800F0C0FADB
:105110000346FB73FB7B002B09D17B689B6D23F45B
:10512000807323F0010343F001027B689A657B687A
:10513000002283F85420FB7B18461037BD4680BD03
:1051400080B584B000AF786039607B685B69082BFC
:1051500002D10823FB6010E07B681B68DB6803F06A
:105160000103002B07D07B689B6D43F020027B6816
:105170009A65012377E00423FB60FEF707FCB86023
:1051800021E03B68B3F1FF3F1DD0FEF7FFFB024675
:10519000BB68D31A3A689A4202D33B68002B12D1FB
:1051A0007B681B681A68FB681340002B0BD17B6877
:1051B0009B6D43F004027B689A657B68002283F84C
:1051C000542003234FE07B681B681A68FB68134078
:1051D000002BD6D07B689B6D43F400727B689A6588
:1051E0007B681B681846FFF7E6FB0346002B31D0AF
:1051F0007B689B7E002B2DD17B681B681B6803F0AE
:105200000803082B26D17B681B681846FFF7EEFCC5
:105210000346002B12D17B681B685A687B681B68A9
:1052200022F00C025A607B689B6D23F4807323F09C
:10523000010343F001027B689A650BE07B689B6D7C
:1052400043F020027B689A657B68DB6D43F00102C6
:105250007B68DA657B681B7E002B03D17B681B684B
:105260000C221A60002318461037BD4680BD80B45A
:1052700083B000AF78607B681B681B6C18460C37E6
:10528000BD4680BC7047000080B588B000AF786034
:1052900039600023FB770023BB607B681B69B3F197
:1052A000004F7B6893F85430012B01D1022310E1A9
:1052B0007B68012283F854207B681B681846FFF73F
:1052C00095FC0346002B40F0F7803B685B68022B9F
:1052D00000F0B1807B681B69B3F1004F04D07B689C
:1052E0001B697E4A934208D17B681A683B681B6839
:1052F00019461046FFF792FB41E07B681A6E3B6847
:105300005B6803F01F030F2101FA03F3DB431A402C
:105310003B681B68C3F31103002B05D13B681B6876
:105320009B0E03F01F0311E03B681B683B613B6968
:1053300093FAA3F3FB60FB687B617B69002B01D1CF
:10534000202303E07B69B3FA83F3DBB23968496851
:1053500001F01F018B401A437B681A663B685B684B
:105360009B085A1C7B68DB699A4208D87B681868DE
:105370003B6859683B681B681A46FFF72EFB7B6841
:1053800018683B6819683B689B681A46FFF76BFB17
:105390003B681B68002B80F297805148FFF7C8FAE2
:1053A000B8613B681B684F4A934220D1BB6903F444
:1053B0000003002B1BD1BB6943F400031946484886
:1053C000FFF7A4FA484B1B689B09484AA2FB03233A
:1053D0009B095A1C13465B0013449B00BB6002E010
:1053E000BB68013BBB60BB68002BF9D16CE03B683C
:1053F0001B683F4A93420CD1BB6903F08073002BBA
:1054000007D1BB6943F0807319463548FFF77EFA30
:105410005AE03B681B68374A934255D1BB6903F495
:105420008003002B50D1BB6943F4800319462C48FC
:10543000FFF76CFA48E07B681B69B3F1004F04D0BA
:105440007B681B69254A934207D17B681A683B68D1
:105450001B6819461046FFF7F3FA3B681B68002BE0
:1054600032DA1F48FFF764FAB8613B681B681D4ACF
:10547000934207D1BB6923F4000319461848FFF78C
:1054800045FA21E03B681B68194A934207D1BB6982
:1054900023F0807319461248FFF738FA14E03B688E
:1054A0001B68144A93420FD1BB6923F48003194649
:1054B0000B48FFF72BFA07E07B689B6D43F0200257
:1054C0007B689A650123FB777B68002283F8542070
:1054D000FB7F18462037BD4680BD00BF040000801A
:1054E00008270140001000B000000020632D3E0599
:1054F000004000B8002000B480B584B000AF7860F0
:105500007B681B681846FFF771FB0346002B33D0FE
:105510007B681B681846FFF731FB0346002B04D15C
:105520007B681B681846FFF74EFBFEF72FFAF86002
:105530001BE0FEF72BFA0246FB68D31A022B14D9A4
:105540007B681B689B6803F00403002B0DD07B680D
:105550009B6D43F010027B689A657B68DB6D43F0BE
:1055600001027B68DA65012307E07B681B689B68A2
:1055700003F00403002BDCD1002318461037BD468E
:1055800080BD000080B584B000AF78600023BB60B0
:105590007B681B681846FFF7DFFA0346002B69D1CA
:1055A0007B681B689A68364B1340002B0DD07B68D4
:1055B0009B6D43F010027B689A657B68DB6D43F05E
:1055C00001027B68DA65012355E07B681B68184699
:1055D000FFF79CFA2B48FFF7ABF9034603F40003EF
:1055E000002B0FD0284B1B689B09284AA2FB0323E2
:1055F0009B090133BB6002E0BB68013BBB60BB6839
:10560000002BF9D17B685B7E012B33D0FEF7BEF90E
:10561000F86028E07B681B681846FFF79DFA034690
:10562000002B04D17B681B681846FFF76FFAFEF762
:10563000ADF90246FB68D31A022B14D97B681B68AC
:105640001B6803F00103012B0DD07B689B6D43F0B9
:1056500010027B689A657B68DB6D43F001027B6812
:10566000DA65012307E07B681B681B6803F0010310
:10567000012BCFD1002318461037BD4680BD00BF97
:10568000170000800827014000000020632D3E0520
:1056900080B584B000AF78607B681B681846FFF760
:1056A0006DFAF8607B681B681846FFF755FA0346E9
:1056B000002B47D0FB68002B44D17B681B689B689C
:1056C00003F00503012B0CD17B681B681846FFF71C
:1056D00030FA7B681B6803221A60FEF757F9B8603E
:1056E00029E07B689B6D43F010027B689A657B68BC
:1056F000DB6D43F001027B68DA65012323E0FEF7EE
:1057000045F90246BB68D31A022B14D97B681B6883
:105710009B6803F00103002B0DD07B689B6D43F069
:1057200010027B689A657B68DB6D43F001027B6841
:10573000DA65012307E07B681B689B6803F00103BF
:10574000002BDCD1002318461037BD4680BD80B445
:1057500083B000AF786039607B68D3F8B43023F051
:105760007F023B681A437B68C3F8B42000BF0C3744
:10577000BD4680BC704780B483B000AF78607B6862
:10578000D3F8B43003F07F0318460C37BD4680BC15
:10579000704780B483B000AF78607B689B6823F06B
:1057A000004323F0170343F001027B689A6000BFB7
:1057B0000C37BD4680BC704780B483B000AF7860C2
:1057C0007B689B6823F0004323F0170343F0020239
:1057D0007B689A6000BF0C37BD4680BC704780B4C0
:1057E00083B000AF78607B689B6803F00103012BF6
:1057F00001D1012300E0002318460C37BD4680BCD0
:10580000704780B483B000AF78607B689B6823F0FA
:10581000004323F0170343F000427B689A6000BF07
:105820000C37BD4680BC704780B483B000AF786051
:105830007B689B6803F00043B3F1004F01D1012363
:1058400000E0002318460C37BD4680BC704780B589
:1058500088B000AF78600023BB600023BB617B6829
:1058600093F85430012B01D10223B9E07B68012267
:1058700083F854207868FFF70BFF0346FB757B68BD
:105880001B681846FFF7ABFF0346002B40F09D80D6
:105890007B689B6D23F4817343F002027B689A65F9
:1058A0007B681B68DA6848F2030313403B617B683E
:1058B0001B68DB687A68126823F4004323F0030353
:1058C000D3600023FB612EE07B681B681846FFF75E
:1058D00098FF14E0BB680133BB60BB68B3F52E3F93
:1058E0000DD37B689B6D23F0120343F010027B689D
:1058F0009A657B68002283F85420012370E07B685E
:105900001B681846FFF790FF0346002BE2D17B6827
:105910001B681846FFF72FFF0246BB691344BB61A3
:10592000FB690133FB61FB69072BCDD9BA69FB69C0
:10593000B2FBF3F3BB617B681B681846FFF729FFD6
:105940007B681B68B9691846FFF701FF7B681B6815
:105950001846FFF731FFFEF719F8F8601CE0FEF774
:1059600015F80246FB68D31A022B15D97B681B6811
:105970001846FFF734FF0346002B0DD07B689B6D64
:1059800043F010027B689A657B68DB6D43F001028F
:105990007B68DA65012323E07B681B681846FFF704
:1059A0001EFF0346002BDAD17B681B68D9687B6831
:1059B0001B683A690A43DA607B689B6D23F0030336
:1059C00043F001027B689A6505E07B689B6D43F0BC
:1059D00010027B689A657B68002283F85420FB7D67
:1059E00018462037BD4680BD80B485B000AF7860D2
:1059F0007B6803F00703FB600C4BDB68BB60BA6895
:105A00004FF6FF031340BB60FB681A02BB681343E9
:105A100043F0BF6343F40033BB60044ABB68D36008
:105A200000BF1437BD4680BC704700BF00ED00E0EA
:105A300080B400AF044BDB681B0A03F00703184671
:105A4000BD4680BC704700BF00ED00E080B483B06D
:105A500000AF0346FB7197F90730002B0BDBFB7996
:105A600003F01F02064997F907305B09012000FA8D
:105A700002F241F8232000BF0C37BD4680BC7047BE
:105A800000E100E080B483B000AF0346FB7197F9FA
:105A90000730002B12DBFB7903F01F020A4997F94C
:105AA00007305B09012000FA02F2203341F823207D
:105AB000BFF34F8F00BFBFF36F8F00BF00BF0C3726
:105AC000BD4680BC704700BF00E100E080B483B0F9
:105AD00000AF03463960FB7197F90730002B0ADBF2
